:100000000C9462370C9493370C9493370C94933779
:100010000C9493370C94CDE30C9493370C9417C63F
:100020000C9458E30C9493370C9493370C949337B7
:100030000C9493370C9493370C940ABA0D94415155
:100040000C9493370C941EF80C9493370C949337BC
:100050000C9493370C9493370C9493370C9404A519
:100060000C9493370D946E4C0C9493370C949337F7
:100070000C9493370C9493370C9493370C949337D8
:100080000C9493370C9493370C9493370C949337C8
:100090000D942A4C0C9493370C9493370C9493370B
:1000A0000C9493370C9493370D94B9500C94933768
:1000B0000C9493370D949B500C9493370C94933776
:1000C0000C9493370C9493370C9493370D941D50E4
:1000D0000C9493370C9493370C9493370C94933778
:1000E0000C94933720A52EA53CA549A55BA562A538
:1000F00084A59AA551A653A651A653A651A653A6C8
:1001000055A657A686AF09B2E1B1D7B1CDB1C3B1FB
:10011000B9B12BB21CB295B16BB150B1AA010E02AC
:100120000602A8028C02F00142027C029C01D60168
:100130005E01340210026E02F001FE0168029E01AF
:10014000A6029201D001C4028002E2018602C0012F
:10015000F6016002B002900204026201E201A00214
:10016000F801E801160294023C026E019A0136027F
:100170009C0252025A0166014A02EC012E027802E8
:10018000E6016C0176010202B202B60180017A0139
:10019000B2028E01B0017602980266026602DC01AC
:1001A0006602DC017A0292024E025201BC02980100
:1001B0005401A2011C025002C8016401CA01AA0232
:1001C0004A01084AD73B3BCE016E84BCBFFDC12F1C
:1001D0003D6C74319ABD56833DDA3D00C77F11BE38
:1001E000D9E4BB4C3E916BAAAABE000000803F053B
:1001F000A84CCDB2D44EB93836A9020C50B991866C
:1002000088083CA6AAAA2ABE000000803F076342D5
:1002100036B79BD8A71A39685618AEBAAB558C1D9D
:100220003CB7CC5763BD6DEDFD753EF6177231BF1F
:10023000000000803F08000000BE922449123EAB3F
:10024000AAAA2ABECDCCCC4C3E00000080BEABAAF0
:10025000AAAA3E00000000BF000000803F0000008E
:100260000000084178D3BB4387D1133D190E3CC32E
:10027000BD4282AD2B3E68EC8276BED98FE1A93EAD
:100280004C80EFFFBE01C4FF7F3F00000000000074
:100290000D944A450D94E5860D9423460D94CE4663
:1002A0000D9413650D9445860D9484860D94C9753F
:1002B0000D94F8420D940E410D941E430D944D1C67
:1002C0000D943B760D947F200D94BA860D94644175
:1002D0000D94BC2E0D949D2C0D9496480D94923E39
:1002E0000D944F2B0D94151D0D94AB5B0D94A048F0
:1002F0000D94061D0D94FE480D9487770D94FC63B4
:100300000D9402490D94376D0D940A7C0D94F71CE1
:100310000D9460250D946F1C0D94852C0D9404494B
:100320000D94E1240D9415200D94A52C0D94EE5CF4
:100330000D9467860D94623E0D94451C0D94691CC6
:100340000D940B430D948A860D94101D0D942D462B
:100350000D94AA490D94341C0D947D2C0D946F605E
:100360000D9421490D94CA5E0D9465460D94F04894
:100370000D94582B0D94F92E0D9415460D943C4375
:100380000D9440200D947E1C0D94C01E0D941305F9
:100390000D94AC860D94D1860D94122E0D945D268D
:1003A0000D941A200D94B8660D941A1D0D94491CD5
:1003B0000D940A470D946A2B0D94C87B0D946D2CF7
:1003C0000D945F430D94A7200D947A7A0D948A487A
:1003D0000D949D200D946C7C0D94B7410D947C255B
:1003E0000D946E1C0D9477470D949F790D944820C1
:1003F0000D9493200D941C460D94011D0D94611CC9
:100400000D94F8760D94CF480D9475200D94261C0C
:100410000D9415420D94447A0D94955B0D94371C00
:100420000D94571C0D94AE770D94E5420D94153F35
:100430000D94D7660D94B2750D9490860D94C63DBB
:100440000D941E1D0D940E460D94752C0D9428438D
:100450000D943F460D94EB790D940B1D0D94684857
:100460000D949A790D946B660D94531C0D940F4264
:100470000D94952C0D94F4A20D94C33E0D94512629
:100480000D94751C0D943B1C0D9440440D94385BE9
:100490000D94295F0D9480410D9469760D943786F3
:1004A0000D949E860D9478400D948D2C0D9492465B
:1004B0000D94715A0D9487280D945B2C0D94072987
:1004C0000D9452200D949D600D9451750D94C57B33
:1004D0000D94651C0D94345C0D94791C0D945B1C7B
:1004E0000D94295B0D94CD5A0D94117C0D943549D2
:1004F0000D9479480D94CB7B0D943F1C0D94CE1E2A
:100500000D942E200D94612B0D94FC1C0D9438201D
:100510000D94C3490D9485430D94301C0D94B42E55
:100520000D9466200D94CE7B0D941E3F0D943243A6
:100530000D9447490D94B82E0D94593F0D94AB4737
:100540000D9489200D940D760D9420420D94102069
:100550000D942A1C0D94D7860D9494490D94652C06
:100560000D945C200D9452480D943E470D947E03EB
:100570000D94DF470D94BE760D9455860D9456A6C6
:100580000D94BC750D94AE270D9424206E616E0001
:10059000696E66004E414E494E495459494E46CD0A
:1005A000CCCC3D0AD7233C17B7D13877CC2B32952A
:1005B00095E6241FB14F0A000020410000C8420008
:1005C000401C4620BCBE4CCA1B0E5AAEC59D7400D2
:1005D000407A10F35A00A0724E18090010A5D4E812
:1005E0000000E87648170000E40B54020000CA9AA5
:1005F0003B000000E1F505000080969800000040F7
:10060000420F000000A0860100000010270000003B
:1006100000E803000000006400000000000A000081
:100620000000000100000000002C76D888DC674F35
:100630000823DFC1DFAE59E1B1B796E5E3E453C665
:100640003AE651997696E8E6C28426EB898C9B625D
:10065000ED407C6FFCEFBC9C9F40F2BAA56FA5F407
:1006600090055A2AF75C936B6CF9676DC11BFCE02F
:10067000E40D47FEF520E6B500D0ED902E03009482
:100680003577050080841E080000204E0A00000017
:10069000C80C333333330F986E12831141EF8D2121
:1006A00014893BE65516CFFEE6DB18D1844B381B88
:1006B000F77C1D901DA4BBE424203284725E22814D
:1006C00000C9F124ECA1E53D276364696E6F707386
:1006D0007578585B002564206279746573207772A1
:1006E000697474656E20746F20454550524F4D20DB
:1006F00061742061646472657373203078253034CE
:1007000078004433202D20526561642F577269743C
:100710006520454550524F4D0A0020436F756E7459
:1007200020583A20005344207072696E74696E67D5
:10073000206279746520004E6F7420696E206661B6
:10074000726D206D6F64652E00416374697665205B
:1007500045787472756465723A2000496E76616CF2
:100760006964206578747275646572005A204F66FA
:100770006673657400556E6B6E6F776E20636F6D78
:100780006D616E643A2022004D32303020496E7621
:10079000616C696420657874727564657220007A92
:1007A0005F6D61783A20007A5F6D696E3A2000795A
:1007B0005F6D61783A2000795F6D696E3A2000784C
:1007C0005F6D61783A20006F70656E005452494742
:1007D000474552454400785F6D696E3A2000526586
:1007E000706F7274696E6720656E6473746F7020C9
:1007F0007374617475730053494C454E54004E4FE9
:10080000524D414C002553204D4F44453A205065F0
:100810007263656E7420646F6E653A2025643B20B8
:100820007072696E742074696D652072656D61699E
:100830006E696E6720696E206D696E733A2025645B
:100840000A00456E642066696C65206C69737400EB
:10085000426567696E2066696C65206C6973740017
:100860000A50494E44412074656D7065726174751B
:1008700072653A20252E3166205A207368696674A5
:1008800020286D6D293A20252E3366000A537465A1
:10089000703A2025642F360A000A537465703A2096
:1008A00025642F362028736B6970706564290A509F
:1008B000494E44412074656D70657261747572654E
:1008C0003A202564205A20736869667420286D6D6B
:1008D000293A300A000A5A45524F3A20252E3366EB
:1008E0000A0073746172742074656D70657261744E
:1008F0007572653A20252E31660A00256420202570
:100900002E326600255320583A20252E3566205970
:100910003A20252E3566205A3A20252E35660A00C3
:10092000536C6565702E2E2E004E6F7420696E20FC
:100930006661726D206D6F64652E00256400453020
:100940003A25642052504D0A50524E303A256420C8
:1009500052504D0A00256400442D31202D20456E53
:10096000646C657373206C6F6F700A00416476610C
:100970006E6365204B3D004B206F7574206F6620C1
:10098000616C6C6F7765642072616E676521004DE4
:100990003232302053256900255346696C616D65FC
:1009A0006E742073657474696E67733A204469735A
:1009B00061626C65640A00255346696C616D656E01
:1009C000742073657474696E67733A0A2553202026
:1009D000204D3230302044252E32660A00255352F5
:1009E0006574726163743A20533D4C656E67746838
:1009F00020286D6D2920463A537065656420286D66
:100A00006D2F6D29205A3A205A4C69667420286D42
:100A10006D290A25532020204D3230372053252EB2
:100A200032662046252E3266205A252E32660A2549
:100A3000535265636F7665723A20533D4578747200
:100A400061206C656E67746820286D6D2920463AB8
:100A5000537065656420286D6D2F6D290A2553201C
:100A600020204D3230382053252E32662046252E48
:100A700032660A25534175746F2D52657472616335
:100A8000743A20533D3020746F2064697361626C46
:100A9000652C203120746F20696E746572707265E8
:100AA0007420657874727564652D6F6E6C79206D35
:100AB0006F766573206173207265747261637473FD
:100AC000206F72207265636F7665726965730A259F
:100AD000532020204D323039205325640A002553FD
:100AE000504944206865617462656420736574745C
:100AF000696E67733A0A25532020204D3330342025
:100B000050252E32662049252E32662044252E326D
:100B1000660A0025535049442073657474696E67F2
:100B2000733A0A25532020204D3330312050252E92
:100B300032662049252E32662044252E32660A0070
:100B4000255353746570732070657220756E6974D7
:100B50003A0A255320204D39322058252E3266205E
:100B600059252E3266205A252E32662045252E32F2
:100B7000660A25535553746570207265736F6C75E2
:100B800074696F6E3A200A2553204D333530205852
:100B9000256420592564205A2564204525640A25AA
:100BA000534D6178696D756D206665656472617419
:100BB0006573202D206E6F726D616C20286D6D2F16
:100BC00073293A0A255320204D3230332058252EE0
:100BD00032662059252E3266205A252E326620454F
:100BE000252E32660A25534D6178696D756D206634
:100BF0006565647261746573202D20737465616C22
:100C0000746820286D6D2F73293A0A255320204DD2
:100C10003230332058252E32662059252E32662058
:100C20005A252E32662045252E32660A25534D61FF
:100C300078696D756D20616363656C657261746957
:100C40006F6E202D206E6F726D616C20286D6D2F80
:100C50007332293A0A255320204D3230312058254D
:100C60006C752059256C75205A256C752045256CAE
:100C7000750A25534D6178696D756D2061636365F3
:100C80006C65726174696F6E202D20737465616C80
:100C9000746820286D6D2F7332293A0A255320205D
:100CA0004D3230312058256C752059256C75205AED
:100CB000256C752045256C750A2553416363656C69
:100CC00065726174696F6E3A20533D616363656C50
:100CD00065726174696F6E2C20543D726574726127
:100CE000637420616363656C65726174696F6E0A19
:100CF000255320204D3230342053252E3266205487
:100D0000252E32660A2553416476616E6365642040
:100D10007661726961626C65733A20533D4D696E0C
:100D200020666565647261746520286D6D2F732976
:100D30002C20543D4D696E2074726176656C20667E
:100D40006565647261746520286D6D2F73292C2090
:100D5000423D6D696E696D756D207365676D656E79
:100D6000742074696D6520286D73292C20583D6DA1
:100D70006178696D756D205859206A65726B2028FD
:100D80006D6D2F73292C20205A3D6D6178696D752A
:100D90006D205A206A65726B20286D6D2F73292C87
:100DA0002020453D6D6178696D756D2045206A652F
:100DB000726B20286D6D2F73290A255320204D3228
:100DC00030352053252E32662054252E326620429F
:100DD000252E32662058252E32662059252E326661
:100DE000205A252E32662045252E32660A25534884
:100DF0006F6D65206F666673657420286D6D293A86
:100E00000A255320204D3230362058252E326620B8
:100E100059252E3266205A252E32660A0046256450
:100E20002025640A004D4D55203C3D202746256471
:100E3000202564270A00504944204175746F747559
:100E40006E652066696E69736865642120507574EB
:100E500020746865206C617374204B702C204B6982
:100E600020616E64204B6420636F6E7374616E74D6
:100E7000732066726F6D2061626F766520696E7493
:100E80006F20436F6E66696775726174696F6E2E4D
:100E90006800504944204175746F74756E65206612
:100EA00061696C6564212074696D656F75740020DB
:100EB000403A00543A00423A005049442041757487
:100EC0006F74756E65206661696C65642120546578
:100ED0006D706572617475726520746F6F206869DA
:100EE000676800204B643A2000204B693A200020BC
:100EF0004B703A200020436C617373696320504942
:100F00004420002054753A2000204B753A200020E0
:100F10006D61783A2000206D696E3A200020643AB5
:100F2000200020626961733A200020453A00205A6F
:100F30003A0020593A0020453A00205A3A002059F8
:100F40003A00583A00005A30005A310059300059DE
:100F50003100583000583100456E642073746F7052
:100F6000732064696167002E0044656C6574696F65
:100F70006E206661696C65642C2046696C653A2058
:100F80000046696C652064656C657465643A004E62
:100F90006F74205344207072696E74696E670050DC
:100FA00072696E74207361766564005344207072B8
:100FB000696E7420706175736564004F4B00424127
:100FC000440052414D426F2046414E200043524161
:100FD00053485F43414E43454C0043524153485FA1
:100FE0005245434F5645520043524153485F524584
:100FF000434F5645520022283229004475706C69CF
:101000006361746520542D636F64652069676E6F3A
:101010007265642E0A004475706C696361746520A2
:10102000542D636F64652069676E6F7265642E0A64
:1010300000496E76616C6964205420636F64652E8C
:1010400000556E6B6E6F776E204D20636F64653A4E
:10105000202573200A006E6F2076616C696420631E
:101060006F6D6D616E64002C20002C20002C200020
:101070006E2F61002C20002C20002C20006E2F6190
:1010800000503A005761697420666F722050494ED3
:101090004441207461726765742074656D70657277
:1010A00061747572653A004C414E472053454C209F
:1010B000464F524345440022283129003030303019
:1010C000303030302D303030302D303030302D3029
:1010D0003030302D30303030303030303030303013
:1010E0000020555549443A00310020455854525586
:1010F0004445525F434F554E543A005072757361E8
:10110000206933204D4B335300204D414348494E15
:10111000455F545950453A00312E300020626173CA
:101120006564206F6E204D61726C696E2046495275
:101130004D574152455F55524C3A68747470733A3A
:101140002F2F6769746875622E636F6D2F707275CB
:10115000736133642F50727573612D4669726D77B8
:101160006172652050524F544F434F4C5F56455269
:1011700053494F4E3A004649524D574152455F4EF2
:10118000414D453A50727573612D4669726D7761B4
:10119000726520004D31313320530020423A002047
:1011A000453A00543A0020413A0020503A0020428B
:1011B000403A0020403A00202F00205400202F0009
:1011C00020423A00202F006F6B20543A00256920FE
:1011D0006D696E2C2025692073656300496E766108
:1011E0006C6964204D20636F64653A202573200A82
:1011F00000556E6B6E6F776E204720636F64653AA3
:10120000202573200A004D65736820626564206C98
:101210006576656C696E67206E6F742061637469B2
:1012200076652E002020000A4D6561737572656435
:1012300020706F696E74733A000A5A207365617288
:101240006368206865696768743A20004E756D2090
:10125000582C593A2000206D6963726F6E730045F7
:10126000786365737369766520626564206C657662
:10127000656C696E6720636F7272656374696F6E07
:101280003A2000426564206C6576656C696E672063
:101290006661696C65642E2053656E736F7220748D
:1012A000726967676572656420746F6F206869672B
:1012B000682E0A00426564206C6576656C696E670D
:1012C000206661696C65642E2053656E736F7220B1
:1012D000646973636F6E6E6563746564206F7220FA
:1012E0006361626C652062726F6B656E2E0A0047E7
:1012F00032382057300050494E44412070726F629E
:10130000652063616C6962726174696F6E207374C9
:1013100061727400473238205730004D3234005328
:1013200045545F43484F505F005345545F53544505
:10133000505F005345545F574156455F00544D433D
:101340005F0043524153485F00472D636F6465203F
:10135000736C6963656420666F72206120646966DE
:10136000666572656E74206C6576656C2E20436FC1
:101370006E74696E75653F00472D636F64652073F9
:101380006C6963656420666F7220612064696666BB
:101390006572656E74206C6576656C2E20506C6588
:1013A0006173652072652D736C696365207468656F
:1013B000206D6F64656C20616761696E2E205072CC
:1013C000696E742063616E63656C6C65642E0047A2
:1013D0002D636F646520736C6963656420666F724A
:1013E0002061206E65776572206669726D77617223
:1013F000652E20506C65617365207570646174653D
:1014000020746865206669726D776172652E205060
:1014100072696E742063616E63656C6C65642E0026
:10142000472D636F646520736C6963656420666F24
:10143000722061206E65776572206669726D7761D2
:1014400072652E20436F6E74696E75653F00472D7F
:10145000636F646520736C6963656420666F7220D6
:101460006120646966666572656E74207072696E6B
:1014700074657220747970652E20506C6561736597
:101480002072652D736C69636520746865206D6FCB
:1014900064656C20616761696E2E205072696E749C
:1014A0002063616E63656C6C65642E00472D636F0D
:1014B000646520736C6963656420666F72206120C7
:1014C000646966666572656E74207072696E7465B3
:1014D0007220747970652E20436F6E74696E756525
:1014E0003F00472D636F646520736C6963656420FA
:1014F000666F72206120646966666572656E74202D
:101500007072696E74657220747970652E20436FF5
:101510006E74696E75653F00472D636F6465207357
:101520006C6963656420666F722061206469666619
:101530006572656E74207072696E7465722074795C
:1015400070652E20506C656173652072652D736C1B
:1015500069636520746865206D6F64656C206167E0
:1015600061696E2E205072696E742063616E6365CE
:101570006C6C65642E005072657373206B6E6F62C5
:1015800020746F2070726568656174206E6F7A7A5E
:101590006C6520616E6420636F6E74696E75652E74
:1015A00000506C6561736520707265737320746898
:1015B00065206B6E6F6220746F20756E6C6F616456
:1015C0002066696C616D656E740052656D6F76653D
:1015D000206F6C642066696C616D656E7420616E4D
:1015E0006420707265737320746865206B6E6F621F
:1015F00020746F207374617274206C6F6164696E03
:1016000067206E65772066696C616D656E742E006B
:10161000616E6420707265737320746865206B6EF0
:101620006F6200496E736572742066696C616D65E6
:101630006E7400436F6C6F72206E6F7420636F72F4
:10164000726563740046696C616D656E74206E6FBF
:1016500074206C6F61646564004368616E676564E3
:1016600020636F72726563746C793F004C6F6164C4
:10167000696E6720636F6C6F72004368616E6765A7
:1016800020737563636573732100506C65617365C6
:10169000206F70656E2069646C657220616E6420D5
:1016A00072656D6F76652066696C616D656E74201C
:1016B0006D616E75616C6C792E005761732066697F
:1016C0006C616D656E7420756E6C6F6164207375EE
:1016D000636365737366756C3F00506C6561736519
:1016E00020757067726164652E004E6577206669AB
:1016F000726D776172652076657273696F6E2061B5
:101700007661696C61626C653A0057616974696EF3
:101710006720666F722050494E44412070726F629C
:101720006520636F6F6C696E670043726173682038
:1017300064657465637465642E20526573756D65A8
:10174000207072696E743F00437261736820646533
:101750007465637465642E0045787472756465728F
:101760000043686F6F736520657874727564657285
:101770003A0043686F6F73652066696C616D656ED2
:10178000743A004E6F206D6F76652E005761697454
:1017900020666F7220757365722E2E2E00536F6D4A
:1017A000652070726F626C656D20656E636F756E1B
:1017B00074657265642C205A2D6C6576656C696E53
:1017C0006720656E666F72636564202E2E2E00534F
:1017D0007461626C6520616D6269656E7420746508
:1017E0006D70657261747572652032312D323643C9
:1017F000206973206E656564656420612072696785
:101800006964207374616E642069732072657175F8
:10181000697265642E00506C656173652072756E27
:101820002058595A2063616C6962726174696F6EE5
:101830002066697273742E006164635F696E6974F7
:101840000A000A204F726967696E616C20507275D8
:1018500073612069330A2020205072757361205211
:101860006573656172636800436F6E74696E756558
:10187000207769746820616E6F7468657220626F8A
:101880007764656E3F002500202020202020002066
:1018900020202020200045524153494E4720616CB2
:1018A0006C206461746100466163746F72792052C8
:1018B0004553455400466163746F72792052455315
:1018C00045540044495341424C454400454E414231
:1018D0004C454400202873656E736F7220626F61FF
:1018E0007264207265766973696F6E3A2553290AAE
:1018F000004653656E736F7220255300494E543471
:10190000004D4B33534D4D553253004E4F4D4B33DD
:1019100053002E014E4F4354554100414C54464113
:101920004E004A756E203132203230323000436F23
:101930006D70696C65643A2000286E6F6E652C20AE
:1019400064656661756C7420636F6E6669672900F3
:101950004A756E20313220323032302032303A3205
:10196000353A31350020332E392E302D3334323193
:101970000A007374617274002055706C6F6164208A
:10198000696E2070726F677265737300205A3A0037
:1019900020593A0020583A0043524153485F444589
:1019A00054454354454458590043524153485F44B9
:1019B00045544543544544590043524153485F44BC
:1019C0004554454354454458004D323900457874D8
:1019D00065726E616C2053504920666C6173680AB1
:1019E000573235583230434C206973206E6F742063
:1019F0007265732D0A706F6E64696E672E204C617C
:101A00006E67756167650A73776974636820756EC0
:101A1000617661696C61626C652E00437261736806
:101A20004465746563742044495341424C45440005
:101A3000437261736844657465637420454E414226
:101A40004C45442100457874727564657220666166
:101A50006E20747970653A20005732355832304321
:101A60004C206E6F7420726573706F6E64696E6760
:101A70002E0A002020506C616E6E6572427566669B
:101A8000657242797465733A20002046726565205C
:101A90004D656D6F72793A2000207C204175746825
:101AA0006F723A2000204C61737420557064617429
:101AB00065643A200020536F667477617265205226
:101AC0006573657400205761746368646F672052A2
:101AD00065736574002042726F776E206F75742095
:101AE0005265736574002045787465726E616C2070
:101AF000526573657400506F77657255700065723A
:101B0000726F722077726974696E6720746F2066D5
:101B1000696C6500656E6473746F707320686974B6
:101B20003A2000446F6E6520736176696E672066A7
:101B3000696C652E006F6B004D4B335320666972E4
:101B40006D77617265206465746563746564206F88
:101B50006E204D4B33207072696E74657200507246
:101B6000757361206933204D4B3353204F4B2E004A
:101B7000426C61636B6F7574206F6363757272651D
:101B8000642E205265636F766572207072696E7480
:101B90003F0053656C66746573742077696C6C20C4
:101BA00062652072756E20746F2063616C69627269
:101BB0006174652061636375726174652073656E1D
:101BC000736F726C657373207265686F6D696E6791
:101BD0002E005468657265206973207374696C6C9B
:101BE0002061206E65656420746F206D616B6520D7
:101BF0005A2063616C6962726174696F6E2E205045
:101C00006C6561736520666F6C6C6F7720746865B6
:101C1000206D616E75616C2C2063686170746572F3
:101C20002046697273742073746570732C20736519
:101C30006374696F6E2043616C6962726174696F6D
:101C40006E20666C6F772E005072696E746572201C
:101C5000686173206E6F74206265656E2063616CCD
:101C600069627261746564207965742E20506C65B8
:101C700061736520666F6C6C6F7720746865206D8A
:101C8000616E75616C2C20636861707465722046AA
:101C9000697273742073746570732C207365637438
:101CA000696F6E2043616C6962726174696F6E2046
:101CB000666C6F772E004F6C642073657474696E68
:101CC000677320666F756E642E2044656661756C5F
:101CD00074205049442C20457374657073206574DA
:101CE000632E2077696C6C206265207365742E000A
:101CF0005761726E696E673A20626F746820707205
:101D0000696E746572207479706520616E64206DEF
:101D10006F74686572626F61726420747970652097
:101D20006368616E6765642E005761726E696E67E5
:101D30003A207072696E74657220747970652063E0
:101D400068616E6765642E005761726E696E673AEE
:101D5000206D6F74686572626F617264207479704F
:101D600065206368616E6765642E0058595A206368
:101D7000616C6962726174696F6E20616C6C207253
:101D8000696768742E20536B65772077696C6C20C7
:101D9000626520636F727265637465642061757437
:101DA0006F6D61746963616C6C792E0058595A20AB
:101DB00063616C6962726174696F6E20616C6C2022
:101DC00072696768742E20582F59206178657320D6
:101DD00061726520736C696768746C7920736B65D8
:101DE0007765642E20476F6F64206A6F6221005808
:101DF000595A2063616C6962726174696F6E206FF9
:101E00006B2E20582F5920617865732061726520F0
:101E100070657270656E646963756C61722E2043C3
:101E20006F6E67726174756C6174696F6E73210097
:101E300058595A2063616C6962726174696F6E20CF
:101E40006661696C65642E205269676874206672E9
:101E50006F6E742063616C6962726174696F6E2069
:101E6000706F696E74206E6F742072656163686153
:101E7000626C652E0058595A2063616C6962726108
:101E800074696F6E206661696C65642E2046726F9E
:101E90006E742063616C6962726174696F6E207028
:101EA0006F696E7473206E6F742072656163686110
:101EB000626C652E0058595A2063616C69627261C8
:101EC00074696F6E206661696C65642E20506C6564
:101ED00061736520636F6E73756C74207468652020
:101EE0006D616E75616C2E0058595A2063616C6982
:101EF00062726174696F6E20636F6D70726F6D696D
:101F00007365642E2052696768742066726F6E7400
:101F10002063616C6962726174696F6E20706F69B1
:101F20006E74206E6F7420726561636861626C65A7
:101F30002E0058595A2063616C6962726174696F2E
:101F40006E20636F6D70726F6D697365642E2046CD
:101F5000726F6E742063616C6962726174696F6E16
:101F600020706F696E7473206E6F74207265616388
:101F70006861626C652E0058595A2063616C696211
:101F8000726174696F6E206661696C65642E2042AF
:101F900065642063616C6962726174696F6E207040
:101FA0006F696E7420776173206E6F7420666F7531
:101FB0006E642E00506C6561736520706C616365A2
:101FC00020737465656C207368656574206F6E207E
:101FD000686561746265642E0044697374616E6340
:101FE00065206265747765656E20746970206F6620
:101FF00020746865206E6F7A7A6C6520616E64204B
:10200000746865206265642073757266616365201B
:10201000686173206E6F74206265656E20736574ED
:10202000207965742E20506C6561736520666F6C35
:102030006C6F7720746865206D616E75616C2C2003
:10204000636861707465722046697273742073747A
:102050006570732C2073656374696F6E20466972B6
:102060007374206C617965722063616C696272615E
:1020700074696F6E2E00506C616365206120736817
:10208000656574206F6620706170657220756E647E
:10209000657220746865206E6F7A7A6C652064754D
:1020A00072696E67207468652063616C6962726131
:1020B00074696F6E206F66206669727374203420B5
:1020C000706F696E74732E20496620746865206E87
:1020D0006F7A7A6C652063617463686573207468D5
:1020E000652070617065722C20706F776572206F4B
:1020F000666620746865207072696E746572206906
:102100006D6D6564696174656C792E00506C6561F4
:1021100073652072656D6F766520737465656C20DC
:1021200073686565742066726F6D2068656174629E
:1021300065642E00497320737465656C207368654F
:102140006574206F6E20686561746265643F00206D
:102150006F66203400536561726368696E67206240
:1021600065642063616C6962726174696F6E20706E
:102170006F696E7400206F662039004D656173755C
:1021800072696E67207265666572656E6365206848
:102190006569676874206F662063616C696272614B
:1021A00074696F6E20706F696E7400506C65617336
:1021B0006520636C65616E20746865206E6F7A7A45
:1021C0006C6520666F722063616C6962726174690C
:1021D0006F6E2E20436C69636B207768656E206498
:1021E0006F6E652E004175746F20686F6D650078A5
:1021F000797A63616C5F6D656173737572655F6534
:102200006E7465720A0078797A63616C5F737069C5
:1022100072616C382063783D25642063793D2564C4
:10222000207A303D256420647A3D25642072616403
:102230006975733D25642061643D25640A007879E1
:102240007A63616C5F7365617263685A206E6F2098
:102250007369676E616C0A20783D256C6420793D56
:10226000256C64207A3D256C640A00204F4E2D5366
:1022700049474E414C20617420783D256420793DCA
:102280002564207A3D25642061643D25640A007838
:10229000797A63616C5F7365617263685A20783D17
:1022A000256C6420793D256C64207A3D256C640A98
:1022B000000A00253032780078797A63616C5F73A8
:1022C00063616E5F706978656C735F333278333247
:1022D0002063783D25642063793D2564206D696E17
:1022E0005F7A3D2564206D61785F7A3D25640A0040
:1022F000202532642025640A000A00253032780047
:10230000206D696E3D2564206D61783D25642064F3
:1023100069663D25640A006D61785F633D2532641E
:10232000206D61785F6C3D25640A006D61785F63A4
:102330003D2564206D61785F723D2564206D617874
:102340005F6D617463683D25640A0020783D2564F3
:1023500020793D2564207A3D25640A00207061744F
:102360007465726E20666F756E64206174202564DA
:102370002025640A000000F000F801FC03FE07FEBF
:1023800007FE07FE07FC03F801F000000073697AFE
:10239000656F6628746F74616C293D25640A00734B
:1023A000697A656F6628626C6F636B5F62756666DB
:1023B0006572293D25640A0078797A63616C5F6DE6
:1023C000656173737572655F6C656176650A00702F
:1023D0006F696E743D256420783D256420793D2524
:1023E00064207A3D25640A0058025802584D584D21
:1023F000B004F055F055B00478797A63616C5F668B
:10240000696E645F6265645F696E64756374696F49
:102410006E5F73656E736F725F706F696E745F78F5
:102420007920783D256C6420793D256C64207A3DC7
:10243000256C640A00203C20005741524E494E470B
:102440003A2046726F6E7420706F696E74206E6FE2
:102450007420726561636861626C652E2059206327
:102460006F6F7264696E6174653A000000004041EC
:102470000000C04000005C430000C04000005C431E
:102480000000464300004041000046434974657225
:102490006174696F6E3A200043616C6962726174A5
:1024A000696F6E206661696C6564212043686563AD
:1024B0006B20746865206178657320616E6420729A
:1024C000756E20616761696E2E00000E1315110E86
:1024D00000000004120912040000001C1F11111F4B
:1024E00000000006191803130C00040E1F041C0042
:1024F0000000040A0A0A0A11110E001F1511151F07
:102500000000000103161C0800000000110A04115D
:102510000A040C12120C000000002563252D31382E
:102520002E3138532563005B25735D2563005B25E1
:10253000535D2563002563252D31382E3138530036
:10254000252E31305320002563252D31382E31388A
:10255000732563002563252D2E3136532000256316
:10256000252E3135533A257325336400457872653D
:102570006D65207370616E206F6620746865205AE7
:102580002076616C7565732100426564206C657608
:10259000656C696E67206661696C65642E205365A1
:1025A0006E736F72206469646E74207472696767F9
:1025B00065722E20446562726973206F6E206E6FA3
:1025C0007A7A6C653F2057616974696E6720666F1F
:1025D000722072657365742E00506C65617365209E
:1025E000776169740000002110422063308440A5A7
:1025F00050C660E770088129914AA16BB18CC1ADCA
:10260000D1CEE1EFF13112100273325222B5529461
:1026100042F772D662399318837BB35AA3BDD39C19
:10262000C3FFF3DEE36224433420040114E664C7ED
:1026300074A44485546AA54BB528850995EEE5CF69
:10264000F5ACC58DD55336722611163006D776F601
:10265000669556B4465BB77AA719973887DFF7FEB9
:10266000E79DD7BCC7C448E5588668A7784008618D
:102670001802282338CCC9EDD98EE9AFF948896909
:10268000990AA92BB9F55AD44AB77A966A711A50A1
:102690000A333A122AFDDBDCCBBFFB9EEB799B5859
:1026A0008B3BBB1AABA66C877CE44CC55C222C032D
:1026B0003C600C411CAEED8FFDECCDCDDD2AAD0BA9
:1026C000BD688D499D977EB66ED55EF44E133E3241
:1026D0002E511E700E9FFFBEEFDDDFFCCF1BBF3AF9
:1026E000AF599F788F8891A981CAB1EBA10CD12DE8
:1026F000C14EF16FE18010A100C230E320045025EB
:102700004046706760B9839893FBA3DAB33DC31C5E
:10271000D37FE35EF3B1029012F322D2323542143A
:102720005277625672EAB5CBA5A89589856EF54FAA
:10273000E52CD50DC5E234C324A01481046674478A
:102740006424540544DBA7FAB79987B8975FE77EFE
:10275000F71DC73CD7D326F2369106B016576676DA
:1027600076154634564CD96DC90EF92FE9C899E94A
:10277000898AB9ABA94458654806782768C018E12A
:10278000088238A3287DCB5CDB3FEB1EFBF98BD89E
:102790009BBBAB9ABB754A545A376A167AF10AD07A
:1027A0001AB32A923A2EFD0FED6CDD4DCDAABD8BEA
:1027B000ADE89DC98D267C076C645C454CA23C83CA
:1027C0002CE01CC10C1FEF3EFF5DCF7CDF9BAFBA3E
:1027D000BFD98FF89F176E367E554E745E932EB21A
:1027E0003ED10EF01E7C3C3E3F2F2A225C00222070
:1027F0006661696C65643A2042756666657220663A
:10280000756C6C21002200256920686F7572732039
:102810002569206D696E757465730054494D454F87
:1028200055543A004D3131300046756C6C20525889
:102830002042756666657200437573746F6D00544F
:10284000657874757200536D6F6F7468004731203E
:1028500059252D2E32662045252D2E336600473111
:10286000205825642059252D2E32662045252D2EF1
:102870003366006673656E736F725F636865636B62
:10288000706F696E745F7072696E740A006673654A
:102890006E736F722076302E3420696E20666175FB
:1028A0006C742072616E676520342E362D3556208B
:1028B0002D20756E636F6E6E65637465640A0066C5
:1028C00073656E736F7220696E20666F72626964E1
:1028D00064656E2072616E676520312E352D33562A
:1028E000202D20636865636B2073656E736F720AB9
:1028F00000312E3000312E3500554E4B4E4F574E85
:10290000004C413130433A204C696E656172204180
:102910006476616E6365206D6F64653A20004C419A
:102920003130433A2041646A757374656420452DE3
:102930004A65726B3A2000656E717565696E672035
:102940002200446F6E65207072696E74696E672034
:1029500066696C65004D3131322063616C6C656471
:102960002E20456D657267656E63792053746F70B4
:102970002E005072696E7465722073746F7070658A
:10298000642064756520746F206572726F72732E97
:102990002046697820746865206572726F722061C4
:1029A0006E6420757365204D39393920746F20723B
:1029B0006573746172742E202854656D7065726140
:1029C000747572652069732072657365742E205367
:1029D0006574206974206166746572207265737411
:1029E000617274696E6729004E6F204C696E6520B4
:1029F0004E756D62657220776974682063686563DF
:102A00006B73756D2C204C617374204C696E653A44
:102A100020004E6F20436865636B73756D20776986
:102A20007468206C696E65206E756D6265722C200D
:102A30004C617374204C696E653A2000636865636D
:102A40006B73756D206D69736D617463682C204CB8
:102A5000617374204C696E653A20004C696E652084
:102A60004E756D626572206973206E6F74204C61C3
:102A70007374204C696E65204E756D6265722B31E2
:102A80002C204C617374204C696E653A20005354BD
:102A90004F505045442E2000756E6B6E6F776E2040
:102AA00073746174650020302E34206F72206E655F
:102AB0007765720020302E33206F72206F6C646552
:102AC000720047312058352E302045342E302046B4
:102AD000313030302E30004731205A302E32302005
:102AE00046313030302E30004731205835352E30C9
:102AF000204532352046313430302E3000473120E9
:102B0000592D322E302046313030302E30004731B2
:102B100020583234302E30204532352E3020204699
:102B2000323230302E30004739322045302E3000DE
:102B30004731205A302E332046313030302E30008D
:102B40004731205835352E302045382E302046323A
:102B50003030302E300047312058352E302045336C
:102B6000322E302046313830302E30004731205858
:102B700035352E30204533322E3020463130373334
:102B80002E30004731204634303030004D32303462
:102B9000205331303030004731205A35204637320B
:102BA00030302E30303000473120452D312E353039
:102BB0003030302046323130302E3030303030003E
:102BC0004D38330047393000473231004739322021
:102BD00045302E30004731205835302059353520CA
:102BE00045332E36323737330047312058323030B4
:102BF000205935352045302E3439333836004731A9
:102C00002058323030205937352045332E36323770
:102C1000373300473120583530205937352045307B
:102C20002E34393338360047312058353020593961
:102C3000352045332E36323737330047312058326E
:102C40003030205939352045302E3439333836006C
:102C50004731205832303020593131352045332E1C
:102C6000363237373300473120583530205931312B
:102C7000352045302E343933383600473120583529
:102C80003020593133352045332E36323737330033
:102C90004731205832303020593133352045302EDD
:102CA00036363137340047312058323030205931F0
:102CB00035352045322E36323737330047312058EC
:102CC00031303020593135352045320047312058D8
:102CD000373520593135352045322E3500473120E2
:102CE0004631303830004731205A302E31353020CF
:102CF00046373230302E30303000473120583530B2
:102D00002059313535004739322045302E300047C3
:102D10003238004D313039004D313930004D3130CD
:102D20003700252D3773003A200025642F36002503
:102D30002D32305300202020202020202020202051
:102D4000202020202020202000203A2000202020A9
:102D50002020202020202020202020202020202073
:102D60002000252D3230730020202020202020201C
:102D700020202020200025730054256400473120A6
:102D80005A302E342046313030302E30004731203A
:102D9000592D332E302046313030302E30004D3812
:102DA0003300473120583130302E30204531322E1B
:102DB000352046313030302E300047312058363003
:102DC0002E302045392E302046313030302E300024
:102DD0006C2B562B402B302B272B0E2BFD2AE82A51
:102DE000D72AC22ACC2BC82BC42BC02BA72B972B9E
:102DF0008C2B832B473120583530205933352045D3
:102E0000252D2E336600FA2CE62CDD2CCC2CBC2C88
:102E1000A62C902C7B2C662C502C3B2C272C132C76
:102E2000FE2BE92BD52B496E76616C6964205049E5
:102E3000442063616C2E20726573756C74732E2050
:102E40004E6F742073746F72656420746F204545F3
:102E500050524F4D2E004D353030004731205A3101
:102E60003520463135303000473931004731205860
:102E70003530205931393020453020463730303018
:102E800000473930004D3834004D37303220430090
:102E900047312058313020593138302046343030D5
:102EA00030004731205A31302046313330302E3017
:102EB0003030004D313430205330004D313034202B
:102EC000533000473120452D302E303735303020FB
:102ED00046323130302E3030303030004D313037E6
:102EE000004D313137204669727374206C61796509
:102EF000722063616C2E0050494E44412048656148
:102F000074696E670043616C6962726174696F6EA7
:102F100020646F6E650043616C6962726174696EF2
:102F200067205A0042656420646F6E6500426564E4
:102F30002048656174696E670048656174696E67F1
:102F400020646F6E652E0048656174696E6700507D
:102F500049442063616C2E2066696E6973686564FC
:102F6000005049442063616C2E2020202020202026
:102F700020202020005072696E7420706175736586
:102F8000640025632533642F25642563005A2536A4
:102F90002E32662563005A2020202D2D2D2000255D
:102FA000632533642525002D2D2D002533686864A5
:102FB0000025335325337325250055534200202027
:102FC0002000205344002025753E257500203F3EFB
:102FD000257500204625750020463F0020463020FC
:102FE000200025632D2D3A2D2D202000256325332B
:102FF00075682025632563002563253032753A25E1
:1030000030327525632563002F2F20616374696F4B
:103010006E3A70617573656400FF7FE2FFD97CE3EF
:10302000FFE674E4FF816DE5FFA166E6FF3A60E725
:10303000FF445AE8FFB654E9FF884FEAFFB44AEB71
:10304000FF3346ECFFFF41EDFF113EEEFF663AEF26
:10305000FFF836F0FFC333F1FFC330F2FFF52DF375
:10306000FF542BF4FFDD28F5FF8F26F6FF6524F7CC
:10307000FF5D22F8FF7620F9FFAC1EFAFFFF1CFB74
:10308000FF6B1BFCFFF019FDFF8C18FEFF3C17FFC8
:10309000FF01160000D8140100C1130200B9120389
:1030A00000C1110400D8100500FB0F06002B0F070C
:1030B00000670E0800AE0D0900FF0C0A005A0C0B49
:1030C00000BE0B0C002B0B0D009F0A0E001C0A0FFC
:1030D000009F09100029091100B90812004F0813B8
:1030E00000EB0714008C07150032071600DD0617E9
:1030F000008C06180040061900F7051A00B2051BDF
:103100000070051C0032051D00F6041E00BE041FE1
:1031100000890420005604210026042200F803231D
:1031200000CC032400A20325007B032600550327BF
:1031300000310328000F032900EE022A00CF022BE2
:1031400000B1022C0095022D007A022E0060022FA1
:10315000004702300030023100190232000402330D
:1031600000F0013400DC013500C9013600B8013738
:1031700000A60138009601390087013A0078013B2A
:103180000069013C005C013D004F013E0042013FEF
:1031900000360140002A0141001F01420015014391
:1031A000000B01440001014500F8004600EF004714
:1031B00000E6004800DE004900D6004A00CE004B81
:1031C00000C7004C00C0004D00BA004E00B3004FD5
:1031D00000AD005000A7005100A10052009C005318
:1031E0000096005400910055008C0056008800574E
:1031F00000830058007F0059007B005A0077005B75
:103200000073005C006F005D006B005E0068005F93
:103210000065006000610061005E0062005B0063A9
:1032200000580064005600650053006600500067B7
:10323000004E0068004B00690049006A0047006BBF
:103240000045006C0043006D0041006E003F006FC0
:10325000003D0070003B00710039007200370073C0
:1032600000360074003400750033007600310077BA
:1032700000300078002E0079002D007A002C007BB1
:10328000002B007C0029007D0028007E0027007FA5
:103290000026008000250081002400820023008396
:1032A000002200840021008500200086001F008786
:1032B000001E0088001D0089001D008A001C008B74
:1032C000001B008C001A008D001A008E0019008F60
:1032D000001800900018009100170092001600934B
:1032E0000016009400150095001500960014009734
:1032F00000140098001300990013009A0012009B1C
:103300000012009C0011009D0011009E0010009F03
:10331000001000A0001000A1000F00A2000F00A3E9
:10332000000E00A4000E00A5000E00A6000D00A7D0
:10333000000D00A8000D00A9000C00AA000C00ABB5
:10334000000C00AC000C00AD000B00AE000B00AF99
:10335000000B00B0000A00B1000A00B2000A00B37E
:10336000000A00B4000A00B5000900B6000900B761
:10337000000900B8000900B9000800BA000800BB45
:10338000000800BC000800BD000800BE000800BF27
:10339000000700C0000700C1000700C2000700C30B
:1033A000000700C4000700C5000600C6000600C7ED
:1033B000000600C8000600C9000600CA000600CBCF
:1033C000000600CC000500CD000500CE000500CFB2
:1033D000000500D0000500D1000500D2000500D393
:1033E000000500D4000500D5000400D6000400D775
:1033F000000400D8000400D9000400DA000400DB57
:10340000000400DC000400DD000400DE000400DF36
:10341000000400E0000300E1000300E2000300E319
:10342000000300E4000300E5000300E6000300E7FA
:10343000000300E8000300E9000300EA000300EBDA
:10344000000300EC000300ED000300EE000300EFBA
:10345000000300F0000200F1000200F2000200F39D
:10346000000200F4000200F5000200F6000200F77E
:10347000000200F8000200F9000200FA000200FB5E
:10348000000200FC000200FD000200FE000200FF3E
:10349000000200000102000101020002010200031B
:1034A00001020004010200050102000601020007FA
:1034B00001010008010100090101000A0101000BDE
:1034C0000101000C0101000D0101000E0101000FBE
:1034D000010100100101001101010012010100139E
:1034E000010100140101001501010016010100177E
:1034F00001010018010100190101001A0101001B5E
:103500000101001C0101001D0101001E0101001F3D
:10351000010100200101002101010022010100231D
:1035200001010024010100250101002601010027FD
:1035300001010028010100290101002A0101002BDD
:103540000101002C0101002D0101002E0101002FBD
:10355000010100300101003101010032010100339D
:103560000100003401000035010000360100003781
:1035700001000038010000390100003A0100003B61
:103580000100003C0100003D0100003E0100003F41
:103590000100004001000041010000420100004321
:1035A0000100004401000045010000460100004701
:1035B00001000048010000490100004A0100004BE1
:1035C0000100004C0100004D0100004E0100004FC1
:1035D00001000050010000510100005201000053A1
:1035E0000100005401000055010000560100005781
:1035F00001000058010000590100005A0100005B61
:103600000100005C0100005D0100005E0100005F40
:103610000100006001000061014578747275646505
:10362000722066616E207370656564206973206C1A
:103630006F776572207468616E2065787065637459
:103640006564005072696E742066616E20737065E7
:103650006564206973206C6F776572207468616E91
:10366000206578706563746564004572723A204D18
:10367000415854454D50003A204578747275646540
:1036800072207377697463686564206F66662E20A4
:103690004D415854454D5020747269676765726595
:1036A000642021004572723A204D415854454D50D6
:1036B000204245440054656D706572617475726591
:1036C000206865617465642062656420737769743D
:1036D00063686564206F66662E204D415854454DE1
:1036E0005020747269676765726564202100202D1F
:1036F00020496E76616C69642065787472756465C2
:1037000072206E756D62657220210070012C01902F
:10371000012701B0012201C0011D01F001180110B3
:1037200002130130020E016002090190020401C07F
:1037300002FF000003FA004003F5008003F000D010
:1037400003EB002004E6007004E100E004DC00402C
:1037500005D700C005D2004006CD00D006C80080C5
:1037600007C3003008BE00F008B900C009B400B0BB
:103770000AAF00B00BAA00D00CA500000EA00050AC
:103780000F9B00C01096005012910000148C00C0D6
:10379000158700B0178200B0197D00D01B7800009B
:1037A0001E730040206E0090226900F024640040E7
:1037B000275F0090295A00E02B5500102E50002062
:1037C000304B0010324600E033410090353C001091
:1037D00037370070383200A0392D00B03A2800A0E9
:1037E0003B2300603C1E00103D1900903D1400106A
:1037F0003E0F00703E0A00C03E0500003F000090F2
:10380000137D00B0157800F0177300601A6E00F099
:103810001C6900A01F640050225F0020255A00E0B0
:10382000275500902A5000202D4B00A02F4600F075
:1038300031410010343C00F0353700A03732002011
:10384000392D00603A2800703B2300603C1E0020A8
:103850003D1900C03D1400403E0F00A03E0A00F09C
:103860003E0500403F0000703FFBFF903FF6FFB079
:103870003FF1FFC03FECFFD03FE7FFE03FE2FFF04A
:103880003FDDFFF03FD8FF20484F54454E442054C1
:103890004845524D414C2052554E41574159002008
:1038A0004845415442454420544845524D414C20DE
:1038B00052554E4157415900544845524D414C20B4
:1038C00052554E41574159004245442054484552B3
:1038D0004D414C2052554E415741590020544845C6
:1038E000524D414C2052554E4157415920282050AD
:1038F00052454845415420484F54454E44290020E4
:10390000544845524D414C2052554E415741592043
:10391000282050524548454154204845415442458D
:1039200044290050524548454154204552524F5277
:10393000004245442050524548454154204552528A
:103940004F5200506C6561736520726573746172CB
:103950007400746D63323133305F676F746F5F73FF
:10396000746570202564202564202564202564204A
:103970000A004E6F2030784646207265636569768E
:1039800065640053656E64696E6720307846460052
:103990001F1F1F1F1F1F1F1F46696C616D656E74FF
:1039A0002073656E736F7220626F6172642063684A
:1039B000616E67652064657465637465643A20723E
:1039C00065766973696F6E25530A004E6F772066BE
:1039D000726573682066696C653A20004E6F7720C7
:1039E000646F696E672066696C653A2000222070FA
:1039F0006F73002220706172656E743A2200535515
:103A000042524F5554494E452043414C4C2074611D
:103A1000726765743A220043616E6E6F7420656E42
:103A2000746572207375626469723A200053442091
:103A300063617264206F6B006F70656E526F6F749C
:103A4000206661696C656400766F6C756D652E69C2
:103A50006E6974206661696C656400534420696E08
:103A60006974206661696C0057726974696E6720B9
:103A7000746F2066696C653A200046696C65207336
:103A8000656C6563746564002053697A653A20004B
:103A900046696C65206F70656E65643A20007472CB
:103AA00079696E6720746F2063616C6C2073756236
:103AB0002D67636F64652066696C65732077697430
:103AC0006820746F6F206D616E79206C6576656C0F
:103AD000732E006F70656E206661696C65642C20C2
:103AE00046696C653A2000536F7274696E67206690
:103AF000696C657300536F6D652066696C65732032
:103B000077696C6C206E6F7420626520736F7274BD
:103B100065642E204D61782E204E6F2E206F66201A
:103B200066696C657320696E203120666F6C646510
:103B30007220666F7220736F7274696E672069738A
:103B4000203130302E00257500593A202575202D62
:103B50003E202E2E2E00257500583A202575202D4A
:103B60003E202E2E2E004D656173757265642066B1
:103B7000696C616D656E742073656E736F72206C15
:103B80006F77206C6576656C3A2025342E32665648
:103B90000A004D656173757265642066696C616DBC
:103BA000656E742073656E736F7220686967682034
:103BB0006C6576656C3A2025342E3266560A0045CF
:103BC0007874722066616E2073706565643A202592
:103BD00064200A005072696E742066616E207370F2
:103BE0006565643A202564200A00546573742032A8
:103BF0003A0A00457874722066616E2073706565BC
:103C0000643A202564200A005072696E742066614F
:103C10006E2073706565643A202564200A0054653F
:103C2000737420313A0A004D38340025632041581E
:103C30004953205347313D25640A002D2D2D2D2D4C
:103C40002D2D2D2D2D2D2D2D2D2D2D2D2D2D2D00D1
:103C5000436865636B696E672059206178697320DA
:103C60002000436865636B696E672058206178693E
:103C700073202000496E7365727420746865206635
:103C8000696C616D656E742028646F206E6F74209E
:103C90006C6F61642069742920696E746F20746888
:103CA0006520657874727564657220616E64207435
:103CB00068656E20707265737320746865206B6E22
:103CC0006F622E00566572696669636174696F6E12
:103CD000206661696C65642C2072656D6F76652065
:103CE0007468652066696C616D656E7420616E64D0
:103CF0002074727920616761696E2E0053656E735E
:103D00006F722076657269666965642C2072656DD4
:103D10006F7665207468652066696C616D656E7488
:103D2000206E6F772E00506C656173652063686547
:103D3000636B207468652049522073656E736F72DF
:103D400020636F6E6E656374696F6E7320616E645D
:103D50002066696C616D656E7420697320756E6C88
:103D60006F616465642E00506C6561736520756ECB
:103D70006C6F6164207468652066696C616D656E46
:103D8000742066697273742C207468656E20726585
:103D900070656174207468697320616374696F6E03
:103DA0002E0057616974696E6720666F72206E6FAE
:103DB0007A7A6C6520616E642062656420636F6F3F
:103DC0006C696E670053656C662074657374204F70
:103DD0004B0053656C662074657374207374617254
:103DE000742020005072696E742066616E3A00453E
:103DF000787472756465722066616E3A0043616C16
:103E00006962726174696E6720686F6D6500416CEC
:103E10006C20636F72726563742020202020200064
:103E2000436865636B696E672073656E736F727349
:103E30002000436865636B696E6720686F74656E08
:103E400064202000436865636B696E672062656467
:103E5000202020202000436865636B696E67205A2C
:103E60002061786973202000436865636B696E6721
:103E700020592061786973202000436865636B696D
:103E80006E6720582061786973202000436865635D
:103E90006B696E6720656E6473746F707300417830
:103EA0006973206C656E6774682064696666657204
:103EB000656E63653A252E33660A004D656173753C
:103EC0007265642061786973206C656E6774683A06
:103ED000252E33660A0020573A0020453A00543A0E
:103EE000005A206C6976652061646A757374206F6E
:103EF0007574206F662072616E67652E205365743D
:103F000074696E6720746F20302E20436C69636B78
:103F100020746F20636F6E74696E75652E005A2071
:103F20006C6976652061646A757374206F7574209E
:103F30006F662072616E67652E2053657474696EBA
:103F40006720746F20300020423A0020453A005428
:103F50003A00494E5434007265636F7665725F6D46
:103F6000616368696E655F73746174655F616674CF
:103F700065725F706F7765725F70616E69632C2028
:103F8000696E697469616C20005052555341207507
:103F9000766C6F004734205330004D323620532565
:103FA0006C75004D3130362053004D323230205385
:103FB000256400473120462564004D3832004739DA
:103FC000322045004731204525302E3366204632C9
:103FD000373030004731205A256600505255534142
:103FE000204D424C2056310047312058256620593B
:103FF000256620463330303000506F736974696F26
:104000006E20726561642066726F6D2065657072E6
:104010006F6D3A004D3233202573002E67636F00B9
:104020002C20666565646D756C7469706C793A00F6
:1040300046656564726174653A0047312045252DF7
:10404000302E336620463237303000473120453538
:104050002046313230004D3833004D313039205355
:104060002564004D31393020532564004D31303402
:10407000205325640047323820582059004731200A
:104080005A252E33662046383030004731205A25D5
:104090002D302E33662046252D302E3366004731D5
:1040A0002045252D302E3366204632373030004DE6
:1040B000383300504F5745522050414E4943204419
:1040C000455445435445440055564C4F202D2065DA
:1040D0006E642025640A0055564C4F5F54494E5972
:1040E000202D20656E642025640A00776F726C6451
:1040F00020636F6F7264696E617465733A2028255E
:104100002E33662C20252E33662C20252E3366294F
:104110000A0043757272656E7420706F73205A5F67
:10412000415849533A252E33660A43757272656EBB
:104130007420706F7320455F415849533A252E33E0
:10414000660A0041667465722077616974696E67FA
:1041500020666F722074656D703A0A4375727265DD
:104160006E7420706F7320585F415849533A252E62
:1041700033660A43757272656E7420706F732059CE
:104180005F415849533A252E33660A005265636FE2
:10419000766572696E67207072696E7420202020C7
:1041A000004375742066696C616D656E7400506CB7
:1041B000656173652070756C6C206F75742066691D
:1041C0006C616D656E7420696D6D6564696174659F
:1041D0006C7900556E6C6F6164696E672066696CFE
:1041E000616D656E7400526573756D696E672070E0
:1041F00072696E740052657365740052656E616D0C
:1042000065004669727374206C6179657220636120
:104210006C2E0053656C65637400537465656C2087
:1042200073686565747300536865657400537570D1
:10423000706F7274004661696C20737461747320CE
:104240004D4D55004661696C207374617473005361
:1042500074617469737469637320200043616C69CD
:1042600062726174696F6E004175746F4C6F616446
:104270002066696C616D656E7400437574206669B3
:104280006C616D656E7400456A6563742066696C67
:10429000616D656E7400556E6C6F61642066696C4B
:1042A000616D656E74004C6F616420746F206E6F79
:1042B0007A7A6C65004C6F61642066696C616D652B
:1042C0006E74004E6F20534420636172640050721C
:1042D000696E742066726F6D205344005265737569
:1042E0006D65207072696E74005061757365207021
:1042F00072696E7400526573756D65207072696EB7
:104300007400507265686561740054756E65004C88
:104310006976652061646A757374205A00496E6617
:104320006F2073637265656E0046696E69736869B4
:104330006E67206D6F76656D656E7473004272698D
:104340006768746E657373004173736973740053A7
:10435000696C656E74004F6E6365004C6F75640028
:10436000536F756E64004D4D55204D6F646500436D
:1043700072617368206465742E00537465616C7497
:1043800068004E6F726D616C0046616E73206368E9
:1043900065636B00506175736500436F6E742E002A
:1043A000465320416374696F6E0046696C2E20731A
:1043B000656E736F72004368616E67652066696C35
:1043C000616D656E7400466C6F770053706565644F
:1043D000004E2F41004D61676E65747320636F6DF1
:1043E000702E004F6666004F6E005A2D70726F621D
:1043F00065206E722E004D6573680054696D656F9F
:10440000757400427269676874004D6F646500419D
:1044100075746F0044696D004C6576656C20446965
:104420006D6D6564004C6576656C204272696768E5
:1044300074004572723A205052494E542046414E03
:10444000204552524F52004572723A2045585452FC
:104450002E2046414E204552524F52002F2F2061B0
:104460006374696F6E3A726573756D656400252DAE
:10447000392E39535B002563252D31382E313873A1
:104480002563004661726D206E756D626572004D28
:104490003630300024F4D43050C38E20C2A24017EE
:1044A000828B7011127A910D816CD90AA861E10892
:1044B000C7586607615143061E4B5D05C145A704F9
:1044C0001A411104093D9803713931034036DB026A
:1044D00065339102D4305402802E1D02632CEE010C
:1044E000752AC501B028A001102781018F2564011C
:1044F0002B244B01E0223401AC211F018D200D0142
:10450000801FFC00841EED00971DDF00B81CD20048
:10451000E61BC600201BBC00641AB200B219A8003A
:104520000A19A0006A189900D117910040178B0052
:10453000B516840031167E00B31579003A15730064
:10454000C7146F0058146A00EE13660088136300E6
:1045500025135E00C7125B006C1257001512540041
:10456000C111510070114F0021114B00D6104900AC
:104570008D1047004610440002104200C00F40005A
:10458000800F3E00420F3C00060F3B00CB0E380070
:10459000930E37005C0E3500270E3400F30D320009
:1045A000C10D3100900D3000600D2E00320D2D0038
:1045B000050D2C00D90C2B00AE0C2900850C290010
:1045C0005C0C2700350C27000E0C2600E80B24009D
:1045D000C40B2400A00B23007D0B23005A0B2100E9
:1045E000390B2100180B2000F80A1F00D90A1E0001
:1045F000BB0A1E009D0A1D00800A1D00630A1C00E4
:10460000470A1B002C0A1B00110A1A00F7091A009E
:10461000DD091900C4091900AB0919009209170036
:104620007B091800630917004C09160036091600AB
:10463000200916000A091500F5081500E008140005
:10464000CC081400B8081400A40814009008130043
:104650007D0812006B08130058081200460812006B
:10466000340811002308110012081100010811007C
:10467000F0071000E0071000D0071000C00710007E
:10468000B0070F00A107100091070E0083070F006D
:1046900074070F0065070E0057070E0049070E004C
:1046A0003B070D002E070E0020070D0013070D001D
:1046B00006070D00F9060C00ED060D00E0060C00E3
:1046C000D4060C00C8060C00BC060C00B0060C009A
:1046D000A4060B0099060C008D060B0082060B0049
:1046E00077060B006C060B0061060A0057060B00EC
:1046F0004C060A0042060A0038060A002E060A0086
:1047000024060A001A060A001006090007060A0015
:10471000FD050900F4050900EB050900E2050900A3
:10472000D9050900D0050900C7050900BE05090023
:10473000B5050800AD050800A50509009C050800A1
:10474000940508008C050800840508007C05080015
:10475000740508006C050700650508005D05070085
:10476000560508004E0507004705070040050800EC
:1047700038050700310507002A0507002305070053
:104780001C050600160507000F05070008050600B2
:1047900002050700FB040600F5040700EE0406000E
:1047A000E8040600E2040700DB040600D504060066
:1047B000CF040600C9040600C3040600BD040600B9
:1047C000B7040600B1040500AC040600A604060008
:1047D000A00405009B040600950405009004060053
:1047E0008A04050085040500800406007A0405009B
:1047F00075040500700405006B04050066040500DF
:10480000610405005C04050057040500520405001E
:104810004D04050048040500430405003E0404005F
:104820003A04050035040500300404002C0405009A
:1048300027040400230405001E0404001A040400D5
:1048400016040500110404000D0404000904050009
:104850000404040000040400FC030400F803040042
:10486000F4030400F0030400EC030400E803040074
:10487000E4030400E0030400DC030400D8030400A4
:10488000D4030400D0030400CC030400C8030300D5
:10489000C503030024F404D9201BC40C5C0E980447
:1048A000C4095F0265077101F405F900FB04B30058
:1048B00048048700C10369005803550003034500FD
:1048C000BE023A008402310053022A002902250068
:1048D00004022000E4011C00C8011900AF01170008
:1048E000980114008401130071011000610110008F
:1048F00051010E0043010D0036010B002B010B008E
:1049000020010B00150109000C010900030108003A
:10491000FB000800F3000800EB000700E4000600BD
:10492000DE000600D8000600D2000600CC0005001C
:10493000C7000500C2000500BD000400B900040066
:10494000B5000400B1000400AD000400A90004009B
:10495000A5000300A20003009F0004009B000300C9
:1049600098000300950002009300030090000300EC
:104970008D0002008B000300880002008600020008
:1049800084000300810002007F0002007D0002001D
:104990007B0002007900020077000100760002002F
:1049A0007400020072000100710002006F0002003A
:1049B0006D0001006C0002006A0001006900020045
:1049C000670001006600010065000100640002004C
:1049D0006200010061000100600001005F00020050
:1049E0005D0001005C0001005B0001005A00010055
:1049F0005900010058000100570001005600010055
:104A00005500010054000100530000005300010054
:104A10005200010051000100500001004F00010050
:104A20004E0000004E0001004D0001004C0001004E
:104A30004B0000004B0001004A000100490001004A
:104A40004800000048000100470001004600000047
:104A5000460001004500000045000100440001003F
:104A6000430000004300010042000000420001003A
:104A70004100000041000100400001003F00000033
:104A80003F0001003E0000003E0001003D0000002C
:104A90003D0001003C0000003C0000003C00010023
:104AA0003B0000003B0001003A0000003A0001001A
:104AB0003900000039000100380000003800000013
:104AC0003800010037000000370001003600000008
:104AD00036000000360001003500000035000000FF
:104AE00035000100340000003400000034000100F3
:104AF00033000000330000003300010032000000EA
:104B000032000000320001003100000031000000DE
:104B100031000100300000003000000030000100D2
:104B20002F0000002F0000002F0000002F000100C8
:104B30002E0000002E0000002E0001002D000000BD
:104B40002D0000002D0000002D0001002C000000B1
:104B50002C0000002C0000002C0001002B000000A5
:104B60002B0000002B0000002B0001002A00000099
:104B70002A0000002A0000002A000100290000008D
:104B80002900000029000000290000002900010080
:104B90002800000028000000280000002800000075
:104BA0002800010027000000270000002700000067
:104BB000270000002700010026000000260000005A
:104BC000260000002600000026000100250000004D
:104BD0002500000025000000250000002500000041
:104BE0002500010024000000240000002400000033
:104BF0002400000024000100230000002300000026
:104C00002300000023000000230000002300000018
:104C1000230001002200000022000000220000000A
:104C200022000000220000002200010021000000FC
:104C300021000000210000002100000021000000F0
:104C400021000000210001002000000020000000E1
:104C500020000000200000002000000020000000D4
:104C600020000000200001001F0000001F000000C5
:104C70001F0000001F0000001F0000001F000000B8
:104C80001F0001001E0000001E0000001E000000AA
:104C90001E00000020003E003E0020003E003E00BE
:104CA00054656D70657261747572652063616C69BD
:104CB00062726174696F6E206661696C65642E2032
:104CC000436F6E74696E75652077697468207072C1
:104CD000657373696E6720746865206B6E6F622EF2
:104CE0000054656D70657261747572652063616CE6
:104CF0006962726174696F6E20646F6E652E204305
:104D00006F6E74696E75652077697468207072655E
:104D10007373696E6720746865206B6E6F622E0016
:104D200054656D70657261747572652063616C693C
:104D300062726174696F6E206661696C65640054AB
:104D4000656D70657261747572652063616C69620E
:104D5000726174696F6E2069732066696E69736829
:104D6000656420616E64206163746976652E2054E9
:104D7000656D702E2063616C6962726174696F6E1B
:104D80002063616E2062652064697361626C656492
:104D900020696E206D656E752053657474696E6749
:104DA000732D3E54656D702E2063616C2E00495248
:104DB0003A0046494E44413A0050494E44413A0077
:104DC00053656E736F7220737461746500457874F7
:104DD0007275646572004D6F7665205A004D6F766E
:104DE000652059004D6F7665205800202030002046
:104DF00020310020746F6F206C6F6E6720657874AF
:104E0000727573696F6E2070726576656E74656415
:104E10000020636F6C6420657874727573696F6EBF
:104E20002070726576656E74656400000000000095
:104E3000110A0450525553413344465700207930EB
:104E40003D25640A002078303D25640A004F4B0A56
:104E5000004552524F522061643D25640A002020D3
:104E6000207A303D25640A00207A303D25640A000E
:104E70002079303D25640A002078303D25640A0001
:104E800078797A63616C5F66696E645F706F696E72
:104E9000745F63656E746572320A0000002100243D
:104EA0000027002A002D003000330001010000041B
:104EB0000107010A0100002200250028002B002E16
:104EC000003100340002010000050108010B01005F
:104ED0000020002300260029002C002F00320000B3
:104EE0000100000301060109010505050507050884
:104EF000080808020202020A0A080804040404015D
:104F0000010101010101010303030303030303047E
:104F10000707070C0C0C0C0C0C0C0C02020202060E
:104F2000060606060606060B0B0B0B0B0B0B0B07F8
:104F3000070A0A0A0A0A0A05050504040408080102
:104F4000021020200808102040102040800201029A
:104F50000108040201010204081020408080402062
:104F6000100804020180040201804020100804029D
:104F7000010804020101020408102040800102041B
:104F80000810204080100804088010204004408051
:104F9000102040048000000A0B02090C0D0E0807C7
:104FA00003040100000000000000000000000000F9
:104FB00000000000000000000000000000000000F1
:104FC00000121110000000000000000000000000AE
:104FD00000000000000000000000000000000000D1
:104FE00000000000000000000000004572726F72B7
:104FF000202D20737461746963206D656D6F727903
:1050000020686173206265656E206F7665727772C5
:10501000697474656E00436172642072656D6F76A9
:105020006564005072696E746572206E6F7A7A6C76
:1050300065206469616D6574657220646966666582
:1050400072732066726F6D2074686520472D636FE0
:1050500064652E20506C6561736520636865636BC1
:10506000207468652076616C756520696E207365B3
:105070007474696E67732E205072696E7420636158
:105080006E63656C6C65642E005072696E74657237
:10509000206E6F7A7A6C65206469616D65746572E3
:1050A00020646966666572732066726F6D2074682D
:1050B0006520472D636F64652E20436F6E74696EA3
:1050C00075653F00436F6F6C646F776E005072655B
:1050D0006865617420746865206E6F7A7A6C6521EA
:1050E000004552524F523A0046696C616D656E74CC
:1050F00020657874727564696E67202620776974FC
:105100006820636F727265637420636F6C6F723FA7
:10511000004175746F6C6F6164696E672066696CBD
:10512000616D656E74206973206163746976652CA6
:10513000206A7573742070726573732074686520BB
:105140006B6E6F6220616E6420696E73657274208D
:1051500066696C616D656E742E2E2E005072696EDC
:10516000742074696D650046696C616D656E7420AC
:105170007573656400546F74616C207072696E742D
:105180002074696D6500546F74616C2066696C6190
:105190006D656E74005269676874004C65667400D2
:1051A000592064697374616E63652066726F6D2047
:1051B0006D696E0053657665726520736B65773A2D
:1051C00000536C6967687420736B65773A004D65AE
:1051D00061737572656420736B6577005B303B307B
:1051E0005D20706F696E74206F6666736574004130
:1051F000646A757374696E67205A3A005265736504
:105200007400526561722073696465205B756D5D21
:105210000046726F6E7420736964655B756D5D0026
:10522000526967687420736964655B756D5D004CD5
:105230006566742073696465205B756D5D005365F8
:10524000742074656D70657261747572653A00469C
:105250004C4558202D20203234302F35300050500E
:105260002020202D20203235342F31303000484985
:105270005053202D20203232302F31303000414227
:105280005320202D20203235352F3130300050432F
:105290002020202D20203237352F3131300041534E
:1052A0004120202D20203236302F3130350050451E
:1052B0005420202D20203233302F383500504C41DF
:1052C00020202D20203231352F3630006E6F7A7A33
:1052D0006C65202D20203235302F30006661726DD4
:1052E0002020202D20203235302F383000252D3140
:1052F000322E313253252B382E31660045787472A8
:10530000756465723A006D6D0059005800583A0096
:10531000593A005A3A002563252D31332E31335343
:10532000252B352E33660025533A0A2531382E3287
:10533000666D200A25533A0A2531306C64682025B1
:1053400030326868646D20253032686864730025E7
:10535000533A0A2531382E32666D200A25533A0A0F
:105360002531306C646420253032686864682025FB
:1053700030326868646D0025362E32666D6D00250A
:10538000533A0A25530A25533A0A25533A0025333E
:105390002E3266010025533A0A25530A252D313550
:1053A0002E31355325332E3266010A252D31352E07
:1053B00031355325332E326601004572723A204D45
:1053C000494E54454D50003A2045787472756465D5
:1053D00072207377697463686564206F66662E2037
:1053E0004D494E54454D502074726967676572652A
:1053F000642021004572723A204D494E54454D506B
:10540000204245440054656D706572617475726523
:1054100020686561746564206265642073776974CF
:1054200063686564206F66662E204D494E54454D75
:105430005020747269676765726564202100746D1D
:1054400063323133305F686F6D655F656E746572AE
:1054500028617865735F6D61736B3D3078253032FC
:1054600078290A00746D63323133305F686F6D657F
:105470005F6578697420746D63323133305F7367B0
:105480005F686F6D696E675F617865735F6D61738B
:105490006B3D3078253032780A00726573756C7414
:1054A0002076616C75653A2025640A0020693D25E7
:1054B000326420636E743D2532642076616C3D2534
:1054C00032640A00636C7573746572733A0A002063
:1054D000693D25326420737465703D2532640A008D
:1054E000736F727465642073616D706C65733A0AD2
:1054F00000544D4320445249564552204F56455280
:1055000054454D50006F6B0A0073746172740A0049
:105510004D4D5532206669726D77617265207665F2
:105520007273696F6E20696E76616C69642E2052A9
:10553000657175697265642076657273696F6E3A1C
:10554000206275696C64206E756D626572202564D9
:10555000206F72206869676865722E004D4D552076
:105560003D3E20276F6B270A004D4D55203D3E20C4
:10557000276F6B270A002564004D4D55203D3E20C6
:10558000276F6B272C20726573756D6520707269AB
:105590006E740A004D4D55207265747279206174E5
:1055A00074656D7074206E722E2025640A004D4D56
:1055B00055203D3E20276F6B270A00410A004D4DC4
:1055C00055203C3D202741270A004D363030004D04
:1055D000363030204155544F002568687500410A27
:1055E000004D4D55203C3D202741270A0050300AF0
:1055F000004D25640A004D4D55203C3D20274D258A
:1056000064270A0057300A004D4D55203C3D2027A5
:105610005730270A0053330A004D4D55203C3D209A
:10562000275333270A0052300A004D4D55203C3D88
:1056300020275230270A004B25640A004D4D552083
:105640003C3D20274B2564270A004525640A004D70
:105650004D55203C3D2027452564270A0055300A3A
:10566000004D4D55203C3D20275530270A00433042
:105670000A004D4D55203C3D20274330270A004C61
:1056800025640A004D4D55203C3D20274C256427BC
:105690000A005425640A004D4D55203C3D202754F6
:1056A0002564270A004D4D55202D20454E41424C82
:1056B000454400256868750050300A004D310A00E5
:1056C0004D4D55203C3D20274D31270050300A00DC
:1056D0004D4D552076657273696F6E2076616C69E9
:1056E00064004D4D55203D3E202725646F6B270AF1
:1056F0000025750053320A004D4D55203C3D2027B2
:10570000533227004D4D55203D3E202725646F6BB9
:10571000270A002575004D4D55206E6F7420726567
:1057200073706F6E64696E67202D20444953414247
:105730004C45440053310A004D4D55203C3D202737
:10574000533127004D4D55203D3E20277374617223
:105750007427006572726F723A20756E6B6E6F7788
:105760006E206D6F76650A006E6F206D6F76650A2C
:1057700000542D636F64650A00756E6C6F61640A76
:10578000006C6F61640A006D6D755F6765745F72B0
:105790006573706F6E7365202D20626567696E207A
:1057A0006D6F76653A20006D6D755F6765745F7229
:1057B0006573706F6E736528292072657475726EDB
:1057C000696E673A2025640A00556E6C6F616469E2
:1057D0006E672066696E697368656420320A0055D9
:1057E0006E6C6F616420320A00556E6C6F61646983
:1057F0006E672066696E697368656420310A0055BA
:105800006E6C6F616420310A004D4D5520737461D8
:1058100072747320726573706F6E64696E670A00CC
:105820004D4D55206E6F7420726573706F6E646994
:105830006E670A0046696C616D656E74206F7574E1
:10584000206F662072616E6765202564200A000063
:1058500000803F555585410000803F0000C8410051
:10586000000040555505420000C03F00004842007E
:1058700000204055558542000070C1ABAAA64200E9
:105880000060C10000A0410000C0C0000020410035
:10589000002041ABAA3A41000020C15555D5400037
:1058A0000048C255550542506C656173652075709E
:1058B00064617465206669726D7761726520696ED6
:1058C00020796F7572204D4D55322E2057616974C5
:1058D000696E6720666F722072657365742E004D65
:1058E0004D55204F4B2E20526573756D696E672E96
:1058F0002E2E004D4D55204F4B2E20526573756D49
:10590000696E6720706F736974696F6E2E2E2E003A
:105910004D4D55204F4B2E20526573756D696E6746
:105920002074656D70657261747572652E2E2E001F
:105930004669782074686520697373756520616EA7
:1059400064207468656E207072657373206275746C
:10595000746F6E206F6E204D4D5520756E69742EDC
:1059600000507265737320746865206B6E6F6220DF
:10597000746F20726573756D65206E6F7A7A6C65D1
:105980002074656D70657261747572652E004D4D81
:1059900055206E656564732075736572206174743B
:1059A000656E74696F6E2E0025632533642F256440
:1059B000256300437261736820646574656374696C
:1059C0006F6E2063616E0A6265207475726E656425
:1059D000206F6E206F6E6C7920696E0A4E6F726D4B
:1059E000616C206D6F6465005741524E494E473AD5
:1059F0000A437261736820646574656374696F6ECD
:105A00000A64697361626C656420696E0A53746527
:105A1000616C7468206D6F6465004175746F6C6FA4
:105A20006164696E672066696C616D656E74206182
:105A30007661696C61626C65206F6E6C7920776845
:105A4000656E2066696C616D656E742073656E733A
:105A50006F72206973207475726E6564206F6E2E8C
:105A60002E2E004552524F523A2046696C616D65A8
:105A70006E742073656E736F72206973206E6F741D
:105A800020726573706F6E64696E672C20706C6530
:105A900061736520636865636B20636F6E6E656319
:105AA00074696F6E2E004D6F6465206368616E6768
:105AB0006520696E2070726F6772657373202E2E79
:105AC0002E0043616C69627261746500536865659C
:105AD0007420252E37730A5A206F66667365743AF0
